{
  "_format": "hh-sol-artifact-1",
  "contractName": "StargateWrapper",
  "sourceName": "contracts/stargatewrapper.sol",
  "abi": [
    {
      "inputs": [
        {
          "internalType": "contract IStargateRouter",
          "name": "_stargate",
          "type": "address"
        },
        {
          "internalType": "contract IERC20",
          "name": "_usdc",
          "type": "address"
        },
        {
          "internalType": "uint256",
          "name": "_withdrawFee",
          "type": "uint256"
        },
        {
          "internalType": "uint16",
          "name": "_poolId",
          "type": "uint16"
        }
      ],
      "stateMutability": "nonpayable",
      "type": "constructor"
    },
    {
      "anonymous": false,
      "inputs": [
        {
          "indexed": true,
          "internalType": "address",
          "name": "owner",
          "type": "address"
        },
        {
          "indexed": true,
          "internalType": "address",
          "name": "spender",
          "type": "address"
        },
        {
          "indexed": false,
          "internalType": "uint256",
          "name": "value",
          "type": "uint256"
        }
      ],
      "name": "Approval",
      "type": "event"
    },
    {
      "anonymous": false,
      "inputs": [
        {
          "indexed": true,
          "internalType": "address",
          "name": "from",
          "type": "address"
        },
        {
          "indexed": false,
          "internalType": "uint256",
          "name": "amount",
          "type": "uint256"
        }
      ],
      "name": "ClaimRewards",
      "type": "event"
    },
    {
      "anonymous": false,
      "inputs": [
        {
          "indexed": true,
          "internalType": "address",
          "name": "from",
          "type": "address"
        },
        {
          "indexed": false,
          "internalType": "uint256",
          "name": "amount",
          "type": "uint256"
        }
      ],
      "name": "Deposit",
      "type": "event"
    },
    {
      "anonymous": false,
      "inputs": [
        {
          "indexed": true,
          "internalType": "address",
          "name": "previousOwner",
          "type": "address"
        },
        {
          "indexed": true,
          "internalType": "address",
          "name": "newOwner",
          "type": "address"
        }
      ],
      "name": "OwnershipTransferred",
      "type": "event"
    },
    {
      "anonymous": false,
      "inputs": [
        {
          "indexed": true,
          "internalType": "address",
          "name": "from",
          "type": "address"
        },
        {
          "indexed": true,
          "internalType": "address",
          "name": "to",
          "type": "address"
        },
        {
          "indexed": false,
          "internalType": "uint256",
          "name": "value",
          "type": "uint256"
        }
      ],
      "name": "Transfer",
      "type": "event"
    },
    {
      "anonymous": false,
      "inputs": [
        {
          "indexed": true,
          "internalType": "address",
          "name": "to",
          "type": "address"
        },
        {
          "indexed": false,
          "internalType": "uint256",
          "name": "share",
          "type": "uint256"
        }
      ],
      "name": "Withdraw",
      "type": "event"
    },
    {
      "inputs": [
        {
          "internalType": "address",
          "name": "owner",
          "type": "address"
        },
        {
          "internalType": "address",
          "name": "spender",
          "type": "address"
        }
      ],
      "name": "allowance",
      "outputs": [
        {
          "internalType": "uint256",
          "name": "",
          "type": "uint256"
        }
      ],
      "stateMutability": "view",
      "type": "function"
    },
    {
      "inputs": [
        {
          "internalType": "address",
          "name": "spender",
          "type": "address"
        },
        {
          "internalType": "uint256",
          "name": "amount",
          "type": "uint256"
        }
      ],
      "name": "approve",
      "outputs": [
        {
          "internalType": "bool",
          "name": "",
          "type": "bool"
        }
      ],
      "stateMutability": "nonpayable",
      "type": "function"
    },
    {
      "inputs": [],
      "name": "asset",
      "outputs": [
        {
          "internalType": "address",
          "name": "",
          "type": "address"
        }
      ],
      "stateMutability": "view",
      "type": "function"
    },
    {
      "inputs": [
        {
          "internalType": "address",
          "name": "account",
          "type": "address"
        }
      ],
      "name": "balanceOf",
      "outputs": [
        {
          "internalType": "uint256",
          "name": "",
          "type": "uint256"
        }
      ],
      "stateMutability": "view",
      "type": "function"
    },
    {
      "inputs": [],
      "name": "claimRewards",
      "outputs": [
        {
          "internalType": "uint256",
          "name": "",
          "type": "uint256"
        }
      ],
      "stateMutability": "nonpayable",
      "type": "function"
    },
    {
      "inputs": [
        {
          "internalType": "uint256",
          "name": "shares",
          "type": "uint256"
        }
      ],
      "name": "convertToAssets",
      "outputs": [
        {
          "internalType": "uint256",
          "name": "assets",
          "type": "uint256"
        }
      ],
      "stateMutability": "view",
      "type": "function"
    },
    {
      "inputs": [
        {
          "internalType": "uint256",
          "name": "assets",
          "type": "uint256"
        }
      ],
      "name": "convertToShares",
      "outputs": [
        {
          "internalType": "uint256",
          "name": "shares",
          "type": "uint256"
        }
      ],
      "stateMutability": "view",
      "type": "function"
    },
    {
      "inputs": [],
      "name": "decimals",
      "outputs": [
        {
          "internalType": "uint8",
          "name": "",
          "type": "uint8"
        }
      ],
      "stateMutability": "view",
      "type": "function"
    },
    {
      "inputs": [
        {
          "internalType": "address",
          "name": "spender",
          "type": "address"
        },
        {
          "internalType": "uint256",
          "name": "subtractedValue",
          "type": "uint256"
        }
      ],
      "name": "decreaseAllowance",
      "outputs": [
        {
          "internalType": "bool",
          "name": "",
          "type": "bool"
        }
      ],
      "stateMutability": "nonpayable",
      "type": "function"
    },
    {
      "inputs": [
        {
          "internalType": "uint256",
          "name": "_amount",
          "type": "uint256"
        }
      ],
      "name": "deposit",
      "outputs": [
        {
          "internalType": "uint256",
          "name": "",
          "type": "uint256"
        }
      ],
      "stateMutability": "nonpayable",
      "type": "function"
    },
    {
      "inputs": [],
      "name": "getRewards",
      "outputs": [
        {
          "internalType": "uint256",
          "name": "",
          "type": "uint256"
        }
      ],
      "stateMutability": "view",
      "type": "function"
    },
    {
      "inputs": [
        {
          "internalType": "address",
          "name": "spender",
          "type": "address"
        },
        {
          "internalType": "uint256",
          "name": "addedValue",
          "type": "uint256"
        }
      ],
      "name": "increaseAllowance",
      "outputs": [
        {
          "internalType": "bool",
          "name": "",
          "type": "bool"
        }
      ],
      "stateMutability": "nonpayable",
      "type": "function"
    },
    {
      "inputs": [],
      "name": "maxAmount",
      "outputs": [
        {
          "internalType": "uint256",
          "name": "",
          "type": "uint256"
        }
      ],
      "stateMutability": "view",
      "type": "function"
    },
    {
      "inputs": [
        {
          "internalType": "address",
          "name": "",
          "type": "address"
        }
      ],
      "name": "maxDeposit",
      "outputs": [
        {
          "internalType": "uint256",
          "name": "",
          "type": "uint256"
        }
      ],
      "stateMutability": "view",
      "type": "function"
    },
    {
      "inputs": [
        {
          "internalType": "address",
          "name": "",
          "type": "address"
        }
      ],
      "name": "maxMint",
      "outputs": [
        {
          "internalType": "uint256",
          "name": "",
          "type": "uint256"
        }
      ],
      "stateMutability": "view",
      "type": "function"
    },
    {
      "inputs": [
        {
          "internalType": "address",
          "name": "owner",
          "type": "address"
        }
      ],
      "name": "maxRedeem",
      "outputs": [
        {
          "internalType": "uint256",
          "name": "",
          "type": "uint256"
        }
      ],
      "stateMutability": "view",
      "type": "function"
    },
    {
      "inputs": [
        {
          "internalType": "address",
          "name": "owner",
          "type": "address"
        }
      ],
      "name": "maxWithdraw",
      "outputs": [
        {
          "internalType": "uint256",
          "name": "",
          "type": "uint256"
        }
      ],
      "stateMutability": "view",
      "type": "function"
    },
    {
      "inputs": [
        {
          "internalType": "uint256",
          "name": "shares",
          "type": "uint256"
        },
        {
          "internalType": "address",
          "name": "receiver",
          "type": "address"
        }
      ],
      "name": "mint",
      "outputs": [
        {
          "internalType": "uint256",
          "name": "",
          "type": "uint256"
        }
      ],
      "stateMutability": "nonpayable",
      "type": "function"
    },
    {
      "inputs": [],
      "name": "name",
      "outputs": [
        {
          "internalType": "string",
          "name": "",
          "type": "string"
        }
      ],
      "stateMutability": "view",
      "type": "function"
    },
    {
      "inputs": [],
      "name": "owner",
      "outputs": [
        {
          "internalType": "address",
          "name": "",
          "type": "address"
        }
      ],
      "stateMutability": "view",
      "type": "function"
    },
    {
      "inputs": [],
      "name": "poolId",
      "outputs": [
        {
          "internalType": "uint16",
          "name": "",
          "type": "uint16"
        }
      ],
      "stateMutability": "view",
      "type": "function"
    },
    {
      "inputs": [
        {
          "internalType": "uint256",
          "name": "_amount",
          "type": "uint256"
        }
      ],
      "name": "previewDeposit",
      "outputs": [
        {
          "internalType": "uint256",
          "name": "",
          "type": "uint256"
        }
      ],
      "stateMutability": "view",
      "type": "function"
    },
    {
      "inputs": [
        {
          "internalType": "uint256",
          "name": "shares",
          "type": "uint256"
        }
      ],
      "name": "previewMint",
      "outputs": [
        {
          "internalType": "uint256",
          "name": "",
          "type": "uint256"
        }
      ],
      "stateMutability": "view",
      "type": "function"
    },
    {
      "inputs": [
        {
          "internalType": "uint256",
          "name": "shares",
          "type": "uint256"
        }
      ],
      "name": "previewRedeem",
      "outputs": [
        {
          "internalType": "uint256",
          "name": "",
          "type": "uint256"
        }
      ],
      "stateMutability": "view",
      "type": "function"
    },
    {
      "inputs": [
        {
          "internalType": "uint256",
          "name": "_amount",
          "type": "uint256"
        }
      ],
      "name": "previewWithdraw",
      "outputs": [
        {
          "internalType": "uint256",
          "name": "",
          "type": "uint256"
        }
      ],
      "stateMutability": "view",
      "type": "function"
    },
    {
      "inputs": [
        {
          "internalType": "uint256",
          "name": "shares",
          "type": "uint256"
        },
        {
          "internalType": "address",
          "name": "receiver",
          "type": "address"
        },
        {
          "internalType": "address",
          "name": "owner",
          "type": "address"
        }
      ],
      "name": "redeem",
      "outputs": [
        {
          "internalType": "uint256",
          "name": "",
          "type": "uint256"
        }
      ],
      "stateMutability": "nonpayable",
      "type": "function"
    },
    {
      "inputs": [],
      "name": "renounceOwnership",
      "outputs": [],
      "stateMutability": "nonpayable",
      "type": "function"
    },
    {
      "inputs": [],
      "name": "rewardIndex",
      "outputs": [
        {
          "internalType": "uint256",
          "name": "",
          "type": "uint256"
        }
      ],
      "stateMutability": "view",
      "type": "function"
    },
    {
      "inputs": [
        {
          "internalType": "contract IStargateRouter",
          "name": "_stargate",
          "type": "address"
        }
      ],
      "name": "setStargate",
      "outputs": [],
      "stateMutability": "nonpayable",
      "type": "function"
    },
    {
      "inputs": [
        {
          "internalType": "uint256",
          "name": "_withdrawFee",
          "type": "uint256"
        }
      ],
      "name": "setWithdrawFee",
      "outputs": [],
      "stateMutability": "nonpayable",
      "type": "function"
    },
    {
      "inputs": [],
      "name": "stargate",
      "outputs": [
        {
          "internalType": "contract IStargateRouter",
          "name": "",
          "type": "address"
        }
      ],
      "stateMutability": "view",
      "type": "function"
    },
    {
      "inputs": [],
      "name": "symbol",
      "outputs": [
        {
          "internalType": "string",
          "name": "",
          "type": "string"
        }
      ],
      "stateMutability": "view",
      "type": "function"
    },
    {
      "inputs": [],
      "name": "totalAssets",
      "outputs": [
        {
          "internalType": "uint256",
          "name": "",
          "type": "uint256"
        }
      ],
      "stateMutability": "view",
      "type": "function"
    },
    {
      "inputs": [],
      "name": "totalSupply",
      "outputs": [
        {
          "internalType": "uint256",
          "name": "",
          "type": "uint256"
        }
      ],
      "stateMutability": "view",
      "type": "function"
    },
    {
      "inputs": [
        {
          "internalType": "address",
          "name": "to",
          "type": "address"
        },
        {
          "internalType": "uint256",
          "name": "amount",
          "type": "uint256"
        }
      ],
      "name": "transfer",
      "outputs": [
        {
          "internalType": "bool",
          "name": "",
          "type": "bool"
        }
      ],
      "stateMutability": "nonpayable",
      "type": "function"
    },
    {
      "inputs": [
        {
          "internalType": "address",
          "name": "from",
          "type": "address"
        },
        {
          "internalType": "address",
          "name": "to",
          "type": "address"
        },
        {
          "internalType": "uint256",
          "name": "amount",
          "type": "uint256"
        }
      ],
      "name": "transferFrom",
      "outputs": [
        {
          "internalType": "bool",
          "name": "",
          "type": "bool"
        }
      ],
      "stateMutability": "nonpayable",
      "type": "function"
    },
    {
      "inputs": [
        {
          "internalType": "address",
          "name": "newOwner",
          "type": "address"
        }
      ],
      "name": "transferOwnership",
      "outputs": [],
      "stateMutability": "nonpayable",
      "type": "function"
    },
    {
      "inputs": [],
      "name": "usdc",
      "outputs": [
        {
          "internalType": "contract IERC20",
          "name": "",
          "type": "address"
        }
      ],
      "stateMutability": "view",
      "type": "function"
    },
    {
      "inputs": [
        {
          "internalType": "uint256",
          "name": "_amount",
          "type": "uint256"
        },
        {
          "internalType": "address",
          "name": "_to",
          "type": "address"
        }
      ],
      "name": "withdraw",
      "outputs": [
        {
          "internalType": "uint256",
          "name": "",
          "type": "uint256"
        }
      ],
      "stateMutability": "nonpayable",
      "type": "function"
    },
    {
      "inputs": [],
      "name": "withdrawFee",
      "outputs": [
        {
          "internalType": "uint256",
          "name": "",
          "type": "uint256"
        }
      ],
      "stateMutability": "view",
      "type": "function"
    }
  ],
  "bytecode": "0x60c06040526000600d553480156200001657600080fd5b5060405162005aed38038062005aed83398181016040528101906200003c919062000bc3565b826040518060400160405280601381526020017f55534443205374617267617465205661756c74000000000000000000000000008152506040518060400160405280600781526020017f555344432d535600000000000000000000000000000000000000000000000000815250620000c9620000bd6200042160201b60201c565b6200042960201b60201c565b8160049080519060200190620000e192919062000a74565b508060059080519060200190620000fa92919062000a74565b5050506000806200011183620004ed60201b60201c565b91509150816200013657620001306200062760201b62001c8a1760201c565b62000138565b805b60ff1660a08160ff1660f81b815250508273ffffffffffffffffffffffffffffffffffffffff1660808173ffffffffffffffffffffffffffffffffffffffff1660601b81525050505050620001ae8473ffffffffffffffffffffffffffffffffffffffff166200063060201b62001c931760201c565b620001f0576040517f08c379a0000000000000000000000000000000000000000000000000000000008152600401620001e79062000f47565b60405180910390fd5b6200021c8373ffffffffffffffffffffffffffffffffffffffff166200063060201b62001c931760201c565b6200025e576040517f08c379a0000000000000000000000000000000000000000000000000000000008152600401620002559062000ebf565b60405180910390fd5b612710821115620002a6576040517f08c379a00000000000000000000000000000000000000000000000000000000081526004016200029d9062000e9d565b60405180910390fd5b83600660006101000a81548173ffffffffffffffffffffffffffffffffffffffff021916908373ffffffffffffffffffffffffffffffffffffffff16021790555082600760006101000a81548173ffffffffffffffffffffffffffffffffffffffff021916908373ffffffffffffffffffffffffffffffffffffffff16021790555080600b60006101000a81548161ffff021916908361ffff16021790555060017fffffffffffffffffffffffffffffffffffffffffffffffffffffffffffffffff62000374919062000fbd565b6008819055508160098190555062000417600660009054906101000a900473ffffffffffffffffffffffffffffffffffffffff167fffffffffffffffffffffffffffffffffffffffffffffffffffffffffffffffff600760009054906101000a900473ffffffffffffffffffffffffffffffffffffffff1673ffffffffffffffffffffffffffffffffffffffff166200065360201b62001cb6179092919060201c565b50505050620013fe565b600033905090565b60008060009054906101000a900473ffffffffffffffffffffffffffffffffffffffff169050816000806101000a81548173ffffffffffffffffffffffffffffffffffffffff021916908373ffffffffffffffffffffffffffffffffffffffff1602179055508173ffffffffffffffffffffffffffffffffffffffff168173ffffffffffffffffffffffffffffffffffffffff167f8be0079c531659141344cd1fd0a4f28419497f9722a3daafe3b4186f6b6457e060405160405180910390a35050565b6000806000808473ffffffffffffffffffffffffffffffffffffffff1663313ce56760e01b604051602401604051602081830303815290604052907bffffffffffffffffffffffffffffffffffffffffffffffffffffffff19166020820180517bffffffffffffffffffffffffffffffffffffffffffffffffffffffff838183161783525050505060405162000584919062000e06565b600060405180830381855afa9150503d8060008114620005c1576040519150601f19603f3d011682016040523d82523d6000602084013e620005c6565b606091505b5091509150818015620005db57506020815110155b156200061857600081806020019051810190620005f9919062000c2f565b905060ff8016811162000616576001819450945050505062000622565b505b6000809350935050505b915091565b60006012905090565b6000808273ffffffffffffffffffffffffffffffffffffffff163b119050919050565b6000811480620006f3575060008373ffffffffffffffffffffffffffffffffffffffff1663dd62ed3e30856040518363ffffffff1660e01b81526004016200069d92919062000e1f565b60206040518083038186803b158015620006b657600080fd5b505afa158015620006cb573d6000803e3d6000fd5b505050506040513d601f19601f82011682018060405250810190620006f1919062000c2f565b145b62000735576040517f08c379a00000000000000000000000000000000000000000000000000000000081526004016200072c9062000f69565b60405180910390fd5b620007c08363095ea7b360e01b84846040516024016200075792919062000e4c565b604051602081830303815290604052907bffffffffffffffffffffffffffffffffffffffffffffffffffffffff19166020820180517bffffffffffffffffffffffffffffffffffffffffffffffffffffffff8381831617835250505050620007c560201b60201c565b505050565b60006200082e826040518060400160405280602081526020017f5361666545524332303a206c6f772d6c6576656c2063616c6c206661696c65648152508573ffffffffffffffffffffffffffffffffffffffff166200089960201b62001e14179092919060201c565b905060008151111562000894578080602001905181019062000851919062000b97565b62000893576040517f08c379a00000000000000000000000000000000000000000000000000000000081526004016200088a9062000f25565b60405180910390fd5b5b505050565b6060620008b08484600085620008b960201b60201c565b90509392505050565b60608247101562000901576040517f08c379a0000000000000000000000000000000000000000000000000000000008152600401620008f89062000ee1565b60405180910390fd5b6000808673ffffffffffffffffffffffffffffffffffffffff1685876040516200092c919062000e06565b60006040518083038185875af1925050503d80600081146200096b576040519150601f19603f3d011682016040523d82523d6000602084013e62000970565b606091505b509150915062000989878383876200099560201b60201c565b92505050949350505050565b6060831562000a0657600083511415620009fd57620009ba856200063060201b60201c565b620009fc576040517f08c379a0000000000000000000000000000000000000000000000000000000008152600401620009f39062000f03565b60405180910390fd5b5b82905062000a19565b62000a18838362000a2160201b60201c565b5b949350505050565b60008251111562000a355781518083602001fd5b806040517f08c379a000000000000000000000000000000000000000000000000000000000815260040162000a6b919062000e79565b60405180910390fd5b82805462000a8290620010ae565b90600052602060002090601f01602090048101928262000aa6576000855562000af2565b82601f1062000ac157805160ff191683800117855562000af2565b8280016001018555821562000af2579182015b8281111562000af157825182559160200191906001019062000ad4565b5b50905062000b01919062000b05565b5090565b5b8082111562000b2057600081600090555060010162000b06565b5090565b60008151905062000b35816200137c565b92915050565b60008151905062000b4c8162001396565b92915050565b60008151905062000b6381620013b0565b92915050565b60008151905062000b7a81620013ca565b92915050565b60008151905062000b9181620013e4565b92915050565b60006020828403121562000baa57600080fd5b600062000bba8482850162000b24565b91505092915050565b6000806000806080858703121562000bda57600080fd5b600062000bea8782880162000b52565b945050602062000bfd8782880162000b3b565b935050604062000c108782880162000b80565b925050606062000c238782880162000b69565b91505092959194509250565b60006020828403121562000c4257600080fd5b600062000c528482850162000b80565b91505092915050565b62000c668162000ff8565b82525050565b600062000c798262000f8b565b62000c85818562000fa1565b935062000c9781856020860162001078565b80840191505092915050565b600062000cb08262000f96565b62000cbc818562000fac565b935062000cce81856020860162001078565b62000cd98162001142565b840191505092915050565b600062000cf360418362000fac565b915062000d008262001153565b606082019050919050565b600062000d1a602e8362000fac565b915062000d2782620011c8565b604082019050919050565b600062000d4160268362000fac565b915062000d4e8262001217565b604082019050919050565b600062000d68601d8362000fac565b915062000d758262001266565b602082019050919050565b600062000d8f602a8362000fac565b915062000d9c826200128f565b604082019050919050565b600062000db660298362000fac565b915062000dc382620012de565b604082019050919050565b600062000ddd60368362000fac565b915062000dea826200132d565b604082019050919050565b62000e00816200106e565b82525050565b600062000e14828462000c6c565b915081905092915050565b600060408201905062000e36600083018562000c5b565b62000e45602083018462000c5b565b9392505050565b600060408201905062000e63600083018562000c5b565b62000e72602083018462000df5565b9392505050565b6000602082019050818103600083015262000e95818462000ca3565b905092915050565b6000602082019050818103600083015262000eb88162000ce4565b9050919050565b6000602082019050818103600083015262000eda8162000d0b565b9050919050565b6000602082019050818103600083015262000efc8162000d32565b9050919050565b6000602082019050818103600083015262000f1e8162000d59565b9050919050565b6000602082019050818103600083015262000f408162000d80565b9050919050565b6000602082019050818103600083015262000f628162000da7565b9050919050565b6000602082019050818103600083015262000f848162000dce565b9050919050565b600081519050919050565b600081519050919050565b600081905092915050565b600082825260208201905092915050565b600062000fca826200106e565b915062000fd7836200106e565b92508282101562000fed5762000fec620010e4565b5b828203905092915050565b600062001005826200104e565b9050919050565b60008115159050919050565b6000620010258262000ff8565b9050919050565b6000620010398262000ff8565b9050919050565b600061ffff82169050919050565b600073ffffffffffffffffffffffffffffffffffffffff82169050919050565b6000819050919050565b60005b83811015620010985780820151818401526020810190506200107b565b83811115620010a8576000848401525b50505050565b60006002820490506001821680620010c757607f821691505b60208210811415620010de57620010dd62001113565b5b50919050565b7f4e487b7100000000000000000000000000000000000000000000000000000000600052601160045260246000fd5b7f4e487b7100000000000000000000000000000000000000000000000000000000600052602260045260246000fd5b6000601f19601f8301169050919050565b7f5374617267617465577261707065723a20776974686472617720666565206d7560008201527f7374206265206c657373207468616e206f7220657175616c20746f203130303060208201527f3000000000000000000000000000000000000000000000000000000000000000604082015250565b7f5374617267617465577261707065723a20696e76616c6964207772617070656460008201527f20746f6b656e2061646472657373000000000000000000000000000000000000602082015250565b7f416464726573733a20696e73756666696369656e742062616c616e636520666f60008201527f722063616c6c0000000000000000000000000000000000000000000000000000602082015250565b7f416464726573733a2063616c6c20746f206e6f6e2d636f6e7472616374000000600082015250565b7f5361666545524332303a204552433230206f7065726174696f6e20646964206e60008201527f6f74207375636365656400000000000000000000000000000000000000000000602082015250565b7f5374617267617465577261707065723a20696e76616c6964207374617267617460008201527f6520616464726573730000000000000000000000000000000000000000000000602082015250565b7f5361666545524332303a20617070726f76652066726f6d206e6f6e2d7a65726f60008201527f20746f206e6f6e2d7a65726f20616c6c6f77616e636500000000000000000000602082015250565b62001387816200100c565b81146200139357600080fd5b50565b620013a18162001018565b8114620013ad57600080fd5b50565b620013bb816200102c565b8114620013c757600080fd5b50565b620013d58162001040565b8114620013e157600080fd5b50565b620013ef816200106e565b8114620013fb57600080fd5b50565b60805160601c60a05160f81c6146ae6200143f60003960006111e6015260008181610b510152818161122b01528181612627015261285501526146ae6000f3fe608060405234801561001057600080fd5b506004361061025d5760003560e01c8063715018a611610146578063b6b55f25116100c3578063d905777e11610087578063d905777e146107ea578063dd62ed3e1461081a578063e941fa781461084a578063e9ee2fa914610868578063ef8b30f714610886578063f2fde38b146108b65761025d565b8063b6b55f25146106fa578063ba0876521461072a578063c63d75b61461075a578063c6e6f5921461078a578063ce96cb77146107ba5761025d565b8063a9059cbb1161010a578063a9059cbb14610632578063a9e4f01114610662578063b3d7f6b91461067e578063b460af94146106ae578063b6ac642a146106de5761025d565b8063715018a61461058c5780638da5cb5b1461059657806394bf804d146105b457806395d89b41146105e4578063a457c2d7146106025761025d565b8063372500ab116101df578063402d267d116101a3578063402d267d146104905780634cdad506146104c05780635f48f393146104f05780636c099dee1461050e5780636e553f651461052c57806370a082311461055c5761025d565b8063372500ab146103e857806338d52e0f1461040657806339509351146104245780633e0dc34e146104545780633e413bee146104725761025d565b8063095ea7b311610226578063095ea7b31461031c5780630a28a4771461034c57806318160ddd1461037c57806323b872dd1461039a578063313ce567146103ca5761025d565b8062f714ce1461026257806301e1d114146102925780630572b0cc146102b057806306fdde03146102ce57806307a2d13a146102ec575b600080fd5b61027c600480360381019061027791906131be565b6108d2565b6040516102899190613bcb565b60405180910390f35b61029a610b4d565b6040516102a79190613bcb565b60405180910390f35b6102b8610bfd565b6040516102c59190613bcb565b60405180910390f35b6102d66110a2565b6040516102e391906137c5565b60405180910390f35b6103066004803603810190610301919061316c565b611134565b6040516103139190613bcb565b60405180910390f35b610336600480360381019061033191906130b5565b611148565b6040516103439190613774565b60405180910390f35b6103666004803603810190610361919061316c565b61116b565b6040516103739190613bcb565b60405180910390f35b6103846111a9565b6040516103919190613bcb565b60405180910390f35b6103b460048036038101906103af9190613066565b6111b3565b6040516103c19190613774565b60405180910390f35b6103d26111e2565b6040516103df9190613c0f565b60405180910390f35b6103f061120a565b6040516103fd9190613bcb565b60405180910390f35b61040e611227565b60405161041b91906136d0565b60405180910390f35b61043e600480360381019061043991906130b5565b61124f565b60405161044b9190613774565b60405180910390f35b61045c611286565b6040516104699190613b27565b60405180910390f35b61047a61129a565b604051610487919061378f565b60405180910390f35b6104aa60048036038101906104a59190612fd8565b6112c0565b6040516104b79190613bcb565b60405180910390f35b6104da60048036038101906104d5919061316c565b6112fe565b6040516104e79190613bcb565b60405180910390f35b6104f8611312565b6040516105059190613bcb565b60405180910390f35b610516611318565b60405161052391906137aa565b60405180910390f35b610546600480360381019061054191906131be565b61133e565b6040516105539190613bcb565b60405180910390f35b61057660048036038101906105719190612fd8565b6113b5565b6040516105839190613bcb565b60405180910390f35b6105946113fe565b005b61059e611412565b6040516105ab91906136d0565b60405180910390f35b6105ce60048036038101906105c991906131be565b61143b565b6040516105db9190613bcb565b60405180910390f35b6105ec6114b2565b6040516105f991906137c5565b60405180910390f35b61061c600480360381019061061791906130b5565b611544565b6040516106299190613774565b60405180910390f35b61064c600480360381019061064791906130b5565b6115bb565b6040516106599190613774565b60405180910390f35b61067c60048036038101906106779190613143565b6115de565b005b6106986004803603810190610693919061316c565b611688565b6040516106a59190613bcb565b60405180910390f35b6106c860048036038101906106c391906131fa565b61169c565b6040516106d59190613bcb565b60405180910390f35b6106f860048036038101906106f3919061316c565b611715565b005b610714600480360381019061070f919061316c565b61176b565b6040516107219190613bcb565b60405180910390f35b610744600480360381019061073f91906131fa565b6119ec565b6040516107519190613bcb565b60405180910390f35b610774600480360381019061076f9190612fd8565b611a65565b6040516107819190613bcb565b60405180910390f35b6107a4600480360381019061079f919061316c565b611a8f565b6040516107b19190613bcb565b60405180910390f35b6107d460048036038101906107cf9190612fd8565b611aa3565b6040516107e19190613bcb565b60405180910390f35b61080460048036038101906107ff9190612fd8565b611af1565b6040516108119190613bcb565b60405180910390f35b610834600480360381019061082f919061302a565b611b35565b6040516108419190613bcb565b60405180910390f35b610852611bbc565b60405161085f9190613bcb565b60405180910390f35b610870611bc2565b60405161087d9190613bcb565b60405180910390f35b6108a0600480360381019061089b919061316c565b611bc8565b6040516108ad9190613bcb565b60405180910390f35b6108d060048036038101906108cb9190612fd8565b611c06565b005b6000808311610916576040517f08c379a000000000000000000000000000000000000000000000000000000000815260040161090d90613a67565b60405180910390fd5b61091f33611aa3565b831115610961576040517f08c379a000000000000000000000000000000000000000000000000000000000815260040161095890613827565b60405180910390fd5b6000612710600954856109749190613ce3565b61097e9190613cb2565b9050600061098b8561116b565b9050600081116109d0576040517f08c379a00000000000000000000000000000000000000000000000000000000081526004016109c790613807565b60405180910390fd5b6109da3382611e2c565b600660009054906101000a900473ffffffffffffffffffffffffffffffffffffffff1673ffffffffffffffffffffffffffffffffffffffff1663c4de93a5600b60009054906101000a900461ffff168488610a359190613c5c565b306040518463ffffffff1660e01b8152600401610a5493929190613b5d565b602060405180830381600087803b158015610a6e57600080fd5b505af1158015610a82573d6000803e3d6000fd5b505050506040513d601f19601f82011682018060405250810190610aa69190613195565b50610af48486600760009054906101000a900473ffffffffffffffffffffffffffffffffffffffff1673ffffffffffffffffffffffffffffffffffffffff16611ffc9092919063ffffffff16565b8373ffffffffffffffffffffffffffffffffffffffff167f884edad9ce6fa2440d8a54cc123490eb96d2768479d49ff9c7366125a942436482604051610b3a9190613bcb565b60405180910390a2809250505092915050565b60007f000000000000000000000000000000000000000000000000000000000000000073ffffffffffffffffffffffffffffffffffffffff166370a08231306040518263ffffffff1660e01b8152600401610ba891906136d0565b60206040518083038186803b158015610bc057600080fd5b505afa158015610bd4573d6000803e3d6000fd5b505050506040513d601f19601f82011682018060405250810190610bf89190613195565b905090565b600080600660009054906101000a900473ffffffffffffffffffffffffffffffffffffffff1673ffffffffffffffffffffffffffffffffffffffff1663c45a01556040518163ffffffff1660e01b815260040160206040518083038186803b158015610c6857600080fd5b505afa158015610c7c573d6000803e3d6000fd5b505050506040513d601f19601f82011682018060405250810190610ca09190613001565b905060008173ffffffffffffffffffffffffffffffffffffffff1663068bcd8d600b60009054906101000a900461ffff166040518263ffffffff1660e01b8152600401610ced9190613b42565b60206040518083038186803b158015610d0557600080fd5b505afa158015610d19573d6000803e3d6000fd5b505050506040513d601f19601f82011682018060405250810190610d3d919061311a565b905060008173ffffffffffffffffffffffffffffffffffffffff166318160ddd6040518163ffffffff1660e01b815260040160206040518083038186803b158015610d8757600080fd5b505afa158015610d9b573d6000803e3d6000fd5b505050506040513d601f19601f82011682018060405250810190610dbf9190613195565b8273ffffffffffffffffffffffffffffffffffffffff166318160ddd6040518163ffffffff1660e01b815260040160206040518083038186803b158015610e0557600080fd5b505afa158015610e19573d6000803e3d6000fd5b505050506040513d601f19601f82011682018060405250810190610e3d9190613195565b8373ffffffffffffffffffffffffffffffffffffffff166315770f926040518163ffffffff1660e01b815260040160206040518083038186803b158015610e8357600080fd5b505afa158015610e97573d6000803e3d6000fd5b505050506040513d601f19601f82011682018060405250810190610ebb9190613195565b610ec59190613d3d565b8373ffffffffffffffffffffffffffffffffffffffff166370a08231306040518263ffffffff1660e01b8152600401610efe91906136d0565b60206040518083038186803b158015610f1657600080fd5b505afa158015610f2a573d6000803e3d6000fd5b505050506040513d601f19601f82011682018060405250810190610f4e9190613195565b610f589190613ce3565b610f629190613cb2565b90508173ffffffffffffffffffffffffffffffffffffffff166315770f926040518163ffffffff1660e01b815260040160206040518083038186803b158015610faa57600080fd5b505afa158015610fbe573d6000803e3d6000fd5b505050506040513d601f19601f82011682018060405250810190610fe29190613195565b610fea6111a9565b610ff49190613ce3565b8273ffffffffffffffffffffffffffffffffffffffff166318160ddd6040518163ffffffff1660e01b815260040160206040518083038186803b15801561103a57600080fd5b505afa15801561104e573d6000803e3d6000fd5b505050506040513d601f19601f820116820180604052508101906110729190613195565b61107b336113b5565b836110869190613ce3565b6110909190613ce3565b61109a9190613cb2565b935050505090565b6060600480546110b190613e85565b80601f01602080910402602001604051908101604052809291908181526020018280546110dd90613e85565b801561112a5780601f106110ff5761010080835404028352916020019161112a565b820191906000526020600020905b81548152906001019060200180831161110d57829003601f168201915b5050505050905090565b6000611141826000612082565b9050919050565b6000806111536120ce565b90506111608185856120d6565b600191505092915050565b6000806127106009548461117f9190613ce3565b6111899190613cb2565b90506111a1818461119a9190613c5c565b60016122a1565b915050919050565b6000600354905090565b6000806111be6120ce565b90506111cb8582856122f8565b6111d6858585612384565b60019150509392505050565b60007f0000000000000000000000000000000000000000000000000000000000000000905090565b600080611215610bfd565b905061122181336108d2565b91505090565b60007f0000000000000000000000000000000000000000000000000000000000000000905090565b60008061125a6120ce565b905061127b81858561126c8589611b35565b6112769190613c5c565b6120d6565b600191505092915050565b600b60009054906101000a900461ffff1681565b600760009054906101000a900473ffffffffffffffffffffffffffffffffffffffff1681565b60006112ca6125ff565b6112d55760006112f7565b7fffffffffffffffffffffffffffffffffffffffffffffffffffffffffffffffff5b9050919050565b600061130b826000612082565b9050919050565b60085481565b600660009054906101000a900473ffffffffffffffffffffffffffffffffffffffff1681565b6000611349826112c0565b83111561138b576040517f08c379a000000000000000000000000000000000000000000000000000000000815260040161138290613987565b60405180910390fd5b600061139684611bc8565b90506113ab6113a36120ce565b848684612622565b8091505092915050565b6000600160008373ffffffffffffffffffffffffffffffffffffffff1673ffffffffffffffffffffffffffffffffffffffff168152602001908152602001600020549050919050565b6114066126c5565b6114106000612743565b565b60008060009054906101000a900473ffffffffffffffffffffffffffffffffffffffff16905090565b600061144682611a65565b831115611488576040517f08c379a000000000000000000000000000000000000000000000000000000000815260040161147f906139c7565b60405180910390fd5b600061149384611688565b90506114a86114a06120ce565b848387612622565b8091505092915050565b6060600580546114c190613e85565b80601f01602080910402602001604051908101604052809291908181526020018280546114ed90613e85565b801561153a5780601f1061150f5761010080835404028352916020019161153a565b820191906000526020600020905b81548152906001019060200180831161151d57829003601f168201915b5050505050905090565b60008061154f6120ce565b9050600061155d8286611b35565b9050838110156115a2576040517f08c379a000000000000000000000000000000000000000000000000000000000815260040161159990613ae7565b60405180910390fd5b6115af82868684036120d6565b60019250505092915050565b6000806115c66120ce565b90506115d3818585612384565b600191505092915050565b6115e66126c5565b6116058173ffffffffffffffffffffffffffffffffffffffff16611c93565b611644576040517f08c379a000000000000000000000000000000000000000000000000000000000815260040161163b90613aa7565b60405180910390fd5b80600660006101000a81548173ffffffffffffffffffffffffffffffffffffffff021916908373ffffffffffffffffffffffffffffffffffffffff16021790555050565b6000611695826001612082565b9050919050565b60006116a782611aa3565b8411156116e9576040517f08c379a00000000000000000000000000000000000000000000000000000000081526004016116e090613967565b60405180910390fd5b60006116f48561116b565b905061170a6117016120ce565b85858885612807565b809150509392505050565b61171d6126c5565b6127108110611761576040517f08c379a000000000000000000000000000000000000000000000000000000000815260040161175890613927565b60405180910390fd5b8060098190555050565b60008082116117af576040517f08c379a00000000000000000000000000000000000000000000000000000000081526004016117a690613a67565b60405180910390fd5b6008548211156117f4576040517f08c379a00000000000000000000000000000000000000000000000000000000081526004016117eb90613847565b60405180910390fd5b60006117ff83611bc8565b90506000612710600954856118149190613ce3565b61181e9190613cb2565b905061186f333086600760009054906101000a900473ffffffffffffffffffffffffffffffffffffffff1673ffffffffffffffffffffffffffffffffffffffff16612900909392919063ffffffff16565b6118de600660009054906101000a900473ffffffffffffffffffffffffffffffffffffffff1685600760009054906101000a900473ffffffffffffffffffffffffffffffffffffffff1673ffffffffffffffffffffffffffffffffffffffff16611cb69092919063ffffffff16565b600660009054906101000a900473ffffffffffffffffffffffffffffffffffffffff1673ffffffffffffffffffffffffffffffffffffffff166387b21efc600b60009054906101000a900461ffff1683876119399190613d3d565b336040518463ffffffff1660e01b815260040161195893929190613b94565b600060405180830381600087803b15801561197257600080fd5b505af1158015611986573d6000803e3d6000fd5b505050506119943383612989565b3373ffffffffffffffffffffffffffffffffffffffff167fe1fffcc4923d04b559f4d29a8bfc6cda04eb5b0d3c460751c2402c5c5cc9109c856040516119da9190613bcb565b60405180910390a28192505050919050565b60006119f782611af1565b841115611a39576040517f08c379a0000000000000000000000000000000000000000000000000000000008152600401611a30906138e7565b60405180910390fd5b6000611a44856112fe565b9050611a5a611a516120ce565b85858489612807565b809150509392505050565b60007fffffffffffffffffffffffffffffffffffffffffffffffffffffffffffffffff9050919050565b6000611a9c8260006122a1565b9050919050565b600080612710600954611ab5856113b5565b611abf9190613ce3565b611ac99190613cb2565b9050611ae981611ad8856113b5565b611ae29190613d3d565b6000612082565b915050919050565b600080612710600954611b03856113b5565b611b0d9190613ce3565b611b179190613cb2565b905080611b23846113b5565b611b2d9190613d3d565b915050919050565b6000600260008473ffffffffffffffffffffffffffffffffffffffff1673ffffffffffffffffffffffffffffffffffffffff16815260200190815260200160002060008373ffffffffffffffffffffffffffffffffffffffff1673ffffffffffffffffffffffffffffffffffffffff16815260200190815260200160002054905092915050565b60095481565b600a5481565b60008061271060095484611bdc9190613ce3565b611be69190613cb2565b9050611bfe8184611bf79190613d3d565b60006122a1565b915050919050565b611c0e6126c5565b600073ffffffffffffffffffffffffffffffffffffffff168173ffffffffffffffffffffffffffffffffffffffff161415611c7e576040517f08c379a0000000000000000000000000000000000000000000000000000000008152600401611c7590613887565b60405180910390fd5b611c8781612743565b50565b60006012905090565b6000808273ffffffffffffffffffffffffffffffffffffffff163b119050919050565b6000811480611d4f575060008373ffffffffffffffffffffffffffffffffffffffff1663dd62ed3e30856040518363ffffffff1660e01b8152600401611cfd9291906136eb565b60206040518083038186803b158015611d1557600080fd5b505afa158015611d29573d6000803e3d6000fd5b505050506040513d601f19601f82011682018060405250810190611d4d9190613195565b145b611d8e576040517f08c379a0000000000000000000000000000000000000000000000000000000008152600401611d8590613ac7565b60405180910390fd5b611e0f8363095ea7b360e01b8484604051602401611dad92919061374b565b604051602081830303815290604052907bffffffffffffffffffffffffffffffffffffffffffffffffffffffff19166020820180517bffffffffffffffffffffffffffffffffffffffffffffffffffffffff8381831617835250505050612ae1565b505050565b6060611e238484600085612ba8565b90509392505050565b600073ffffffffffffffffffffffffffffffffffffffff168273ffffffffffffffffffffffffffffffffffffffff161415611e9c576040517f08c379a0000000000000000000000000000000000000000000000000000000008152600401611e93906139e7565b60405180910390fd5b611ea882600083612c75565b6000600160008473ffffffffffffffffffffffffffffffffffffffff1673ffffffffffffffffffffffffffffffffffffffff16815260200190815260200160002054905081811015611f2f576040517f08c379a0000000000000000000000000000000000000000000000000000000008152600401611f2690613867565b60405180910390fd5b818103600160008573ffffffffffffffffffffffffffffffffffffffff1673ffffffffffffffffffffffffffffffffffffffff1681526020019081526020016000208190555081600360008282540392505081905550600073ffffffffffffffffffffffffffffffffffffffff168373ffffffffffffffffffffffffffffffffffffffff167fddf252ad1be2c89b69c2b068fc378daa952ba7f163c4a11628f55a4df523b3ef84604051611fe39190613bcb565b60405180910390a3611ff783600084612c7a565b505050565b61207d8363a9059cbb60e01b848460405160240161201b92919061374b565b604051602081830303815290604052907bffffffffffffffffffffffffffffffffffffffffffffffffffffffff19166020820180517bffffffffffffffffffffffffffffffffffffffffffffffffffffffff8381831617835250505050612ae1565b505050565b60008061208d6111a9565b9050600081146120ba576120b56120a2610b4d565b828587612c7f909392919063ffffffff16565b6120c5565b6120c48484612d67565b5b91505092915050565b600033905090565b600073ffffffffffffffffffffffffffffffffffffffff168373ffffffffffffffffffffffffffffffffffffffff161415612146576040517f08c379a000000000000000000000000000000000000000000000000000000000815260040161213d90613a27565b60405180910390fd5b600073ffffffffffffffffffffffffffffffffffffffff168273ffffffffffffffffffffffffffffffffffffffff1614156121b6576040517f08c379a00000000000000000000000000000000000000000000000000000000081526004016121ad906138a7565b60405180910390fd5b80600260008573ffffffffffffffffffffffffffffffffffffffff1673ffffffffffffffffffffffffffffffffffffffff16815260200190815260200160002060008473ffffffffffffffffffffffffffffffffffffffff1673ffffffffffffffffffffffffffffffffffffffff168152602001908152602001600020819055508173ffffffffffffffffffffffffffffffffffffffff168373ffffffffffffffffffffffffffffffffffffffff167f8c5be1e5ebec7d5bd14f71427d1e84f3dd0314c0f7b2291e5b200ac8c7c3b925836040516122949190613bcb565b60405180910390a3505050565b6000806122ac6111a9565b905060008414806122bd5750600081145b6122e4576122df816122cd610b4d565b8587612c7f909392919063ffffffff16565b6122ef565b6122ee8484612d72565b5b91505092915050565b60006123048484611b35565b90507fffffffffffffffffffffffffffffffffffffffffffffffffffffffffffffffff811461237e5781811015612370576040517f08c379a0000000000000000000000000000000000000000000000000000000008152600401612367906138c7565b60405180910390fd5b61237d84848484036120d6565b5b50505050565b600073ffffffffffffffffffffffffffffffffffffffff168373ffffffffffffffffffffffffffffffffffffffff1614156123f4576040517f08c379a00000000000000000000000000000000000000000000000000000000081526004016123eb90613a07565b60405180910390fd5b600073ffffffffffffffffffffffffffffffffffffffff168273ffffffffffffffffffffffffffffffffffffffff161415612464576040517f08c379a000000000000000000000000000000000000000000000000000000000815260040161245b906137e7565b60405180910390fd5b61246f838383612c75565b6000600160008573ffffffffffffffffffffffffffffffffffffffff1673ffffffffffffffffffffffffffffffffffffffff168152602001908152602001600020549050818110156124f6576040517f08c379a00000000000000000000000000000000000000000000000000000000081526004016124ed90613907565b60405180910390fd5b818103600160008673ffffffffffffffffffffffffffffffffffffffff1673ffffffffffffffffffffffffffffffffffffffff1681526020019081526020016000208190555081600160008573ffffffffffffffffffffffffffffffffffffffff1673ffffffffffffffffffffffffffffffffffffffff168152602001908152602001600020600082825401925050819055508273ffffffffffffffffffffffffffffffffffffffff168473ffffffffffffffffffffffffffffffffffffffff167fddf252ad1be2c89b69c2b068fc378daa952ba7f163c4a11628f55a4df523b3ef846040516125e69190613bcb565b60405180910390a36125f9848484612c7a565b50505050565b60008061260a610b4d565b118061261d5750600061261b6111a9565b145b905090565b61264e7f0000000000000000000000000000000000000000000000000000000000000000853085612900565b6126588382612989565b8273ffffffffffffffffffffffffffffffffffffffff168473ffffffffffffffffffffffffffffffffffffffff167fdcbc1c05240f31ff3ad067ef1ee35ce4997762752e3a095284754544f4c709d784846040516126b7929190613be6565b60405180910390a350505050565b6126cd6120ce565b73ffffffffffffffffffffffffffffffffffffffff166126eb611412565b73ffffffffffffffffffffffffffffffffffffffff1614612741576040517f08c379a0000000000000000000000000000000000000000000000000000000008152600401612738906139a7565b60405180910390fd5b565b60008060009054906101000a900473ffffffffffffffffffffffffffffffffffffffff169050816000806101000a81548173ffffffffffffffffffffffffffffffffffffffff021916908373ffffffffffffffffffffffffffffffffffffffff1602179055508173ffffffffffffffffffffffffffffffffffffffff168173ffffffffffffffffffffffffffffffffffffffff167f8be0079c531659141344cd1fd0a4f28419497f9722a3daafe3b4186f6b6457e060405160405180910390a35050565b8273ffffffffffffffffffffffffffffffffffffffff168573ffffffffffffffffffffffffffffffffffffffff1614612846576128458386836122f8565b5b6128508382611e2c565b61287b7f00000000000000000000000000000000000000000000000000000000000000008584611ffc565b8273ffffffffffffffffffffffffffffffffffffffff168473ffffffffffffffffffffffffffffffffffffffff168673ffffffffffffffffffffffffffffffffffffffff167ffbde797d201c681b91056529119e0b02407c7bb96a4a2c75c01fc9667232c8db85856040516128f1929190613be6565b60405180910390a45050505050565b612983846323b872dd60e01b85858560405160240161292193929190613714565b604051602081830303815290604052907bffffffffffffffffffffffffffffffffffffffffffffffffffffffff19166020820180517bffffffffffffffffffffffffffffffffffffffffffffffffffffffff8381831617835250505050612ae1565b50505050565b600073ffffffffffffffffffffffffffffffffffffffff168273ffffffffffffffffffffffffffffffffffffffff1614156129f9576040517f08c379a00000000000000000000000000000000000000000000000000000000081526004016129f090613b07565b60405180910390fd5b612a0560008383612c75565b8060036000828254612a179190613c5c565b9250508190555080600160008473ffffffffffffffffffffffffffffffffffffffff1673ffffffffffffffffffffffffffffffffffffffff168152602001908152602001600020600082825401925050819055508173ffffffffffffffffffffffffffffffffffffffff16600073ffffffffffffffffffffffffffffffffffffffff167fddf252ad1be2c89b69c2b068fc378daa952ba7f163c4a11628f55a4df523b3ef83604051612ac99190613bcb565b60405180910390a3612add60008383612c7a565b5050565b6000612b43826040518060400160405280602081526020017f5361666545524332303a206c6f772d6c6576656c2063616c6c206661696c65648152508573ffffffffffffffffffffffffffffffffffffffff16611e149092919063ffffffff16565b9050600081511115612ba35780806020019051810190612b6391906130f1565b612ba2576040517f08c379a0000000000000000000000000000000000000000000000000000000008152600401612b9990613a87565b60405180910390fd5b5b505050565b606082471015612bed576040517f08c379a0000000000000000000000000000000000000000000000000000000008152600401612be490613947565b60405180910390fd5b6000808673ffffffffffffffffffffffffffffffffffffffff168587604051612c1691906136b9565b60006040518083038185875af1925050503d8060008114612c53576040519150601f19603f3d011682016040523d82523d6000602084013e612c58565b606091505b5091509150612c6987838387612d7d565b92505050949350505050565b505050565b505050565b600080612c8d868686612df3565b905060016002811115612cc9577f4e487b7100000000000000000000000000000000000000000000000000000000600052602160045260246000fd5b836002811115612d02577f4e487b7100000000000000000000000000000000000000000000000000000000600052602160045260246000fd5b148015612d46575060008480612d41577f4e487b7100000000000000000000000000000000000000000000000000000000600052601260045260246000fd5b868809115b15612d5b57600181612d589190613c5c565b90505b80915050949350505050565b600082905092915050565b600082905092915050565b60608315612de057600083511415612dd857612d9885611c93565b612dd7576040517f08c379a0000000000000000000000000000000000000000000000000000000008152600401612dce90613a47565b60405180910390fd5b5b829050612deb565b612dea8383612ef5565b5b949350505050565b600080600080198587098587029250828110838203039150506000811415612e5557838281612e4b577f4e487b7100000000000000000000000000000000000000000000000000000000600052601260045260246000fd5b0492505050612eee565b808411612e6157600080fd5b60008486880990508281118203915080830392506000600186190186169050808604955080840493506001818260000304019050808302841793506000600287600302189050808702600203810290508087026002038102905080870260020381029050808702600203810290508087026002038102905080870260020381029050808502955050505050505b9392505050565b600082511115612f085781518083602001fd5b806040517f08c379a0000000000000000000000000000000000000000000000000000000008152600401612f3c91906137c5565b60405180910390fd5b600081359050612f5481614605565b92915050565b600081519050612f6981614605565b92915050565b600081519050612f7e8161461c565b92915050565b600081519050612f9381614633565b92915050565b600081359050612fa88161464a565b92915050565b600081359050612fbd81614661565b92915050565b600081519050612fd281614661565b92915050565b600060208284031215612fea57600080fd5b6000612ff884828501612f45565b91505092915050565b60006020828403121561301357600080fd5b600061302184828501612f5a565b91505092915050565b6000806040838503121561303d57600080fd5b600061304b85828601612f45565b925050602061305c85828601612f45565b9150509250929050565b60008060006060848603121561307b57600080fd5b600061308986828701612f45565b935050602061309a86828701612f45565b92505060406130ab86828701612fae565b9150509250925092565b600080604083850312156130c857600080fd5b60006130d685828601612f45565b92505060206130e785828601612fae565b9150509250929050565b60006020828403121561310357600080fd5b600061311184828501612f6f565b91505092915050565b60006020828403121561312c57600080fd5b600061313a84828501612f84565b91505092915050565b60006020828403121561315557600080fd5b600061316384828501612f99565b91505092915050565b60006020828403121561317e57600080fd5b600061318c84828501612fae565b91505092915050565b6000602082840312156131a757600080fd5b60006131b584828501612fc3565b91505092915050565b600080604083850312156131d157600080fd5b60006131df85828601612fae565b92505060206131f085828601612f45565b9150509250929050565b60008060006060848603121561320f57600080fd5b600061321d86828701612fae565b935050602061322e86828701612f45565b925050604061323f86828701612f45565b9150509250925092565b61325281613d71565b82525050565b61326181613d83565b82525050565b600061327282613c2a565b61327c8185613c40565b935061328c818560208601613e52565b80840191505092915050565b6132a181613df8565b82525050565b6132b081613e1c565b82525050565b60006132c182613c35565b6132cb8185613c4b565b93506132db818560208601613e52565b6132e481613f44565b840191505092915050565b60006132fc602383613c4b565b915061330782613f55565b604082019050919050565b600061331f601f83613c4b565b915061332a82613fa4565b602082019050919050565b6000613342602783613c4b565b915061334d82613fcd565b604082019050919050565b6000613365602a83613c4b565b91506133708261401c565b604082019050919050565b6000613388602283613c4b565b91506133938261406b565b604082019050919050565b60006133ab602683613c4b565b91506133b6826140ba565b604082019050919050565b60006133ce602283613c4b565b91506133d982614109565b604082019050919050565b60006133f1601d83613c4b565b91506133fc82614158565b602082019050919050565b6000613414601d83613c4b565b915061341f82614181565b602082019050919050565b6000613437602683613c4b565b9150613442826141aa565b604082019050919050565b600061345a603583613c4b565b9150613465826141f9565b604082019050919050565b600061347d602683613c4b565b915061348882614248565b604082019050919050565b60006134a0601f83613c4b565b91506134ab82614297565b602082019050919050565b60006134c3601e83613c4b565b91506134ce826142c0565b602082019050919050565b60006134e6602083613c4b565b91506134f1826142e9565b602082019050919050565b6000613509601b83613c4b565b915061351482614312565b602082019050919050565b600061352c602183613c4b565b91506135378261433b565b604082019050919050565b600061354f602583613c4b565b915061355a8261438a565b604082019050919050565b6000613572602483613c4b565b915061357d826143d9565b604082019050919050565b6000613595601d83613c4b565b91506135a082614428565b602082019050919050565b60006135b8603183613c4b565b91506135c382614451565b604082019050919050565b60006135db602a83613c4b565b91506135e6826144a0565b604082019050919050565b60006135fe602983613c4b565b9150613609826144ef565b604082019050919050565b6000613621603683613c4b565b915061362c8261453e565b604082019050919050565b6000613644602583613c4b565b915061364f8261458d565b604082019050919050565b6000613667601f83613c4b565b9150613672826145dc565b602082019050919050565b61368681613db3565b82525050565b61369581613e40565b82525050565b6136a481613de1565b82525050565b6136b381613deb565b82525050565b60006136c58284613267565b915081905092915050565b60006020820190506136e56000830184613249565b92915050565b60006040820190506137006000830185613249565b61370d6020830184613249565b9392505050565b60006060820190506137296000830186613249565b6137366020830185613249565b613743604083018461369b565b949350505050565b60006040820190506137606000830185613249565b61376d602083018461369b565b9392505050565b60006020820190506137896000830184613258565b92915050565b60006020820190506137a46000830184613298565b92915050565b60006020820190506137bf60008301846132a7565b92915050565b600060208201905081810360008301526137df81846132b6565b905092915050565b60006020820190508181036000830152613800816132ef565b9050919050565b6000602082019050818103600083015261382081613312565b9050919050565b6000602082019050818103600083015261384081613335565b9050919050565b6000602082019050818103600083015261386081613358565b9050919050565b600060208201905081810360008301526138808161337b565b9050919050565b600060208201905081810360008301526138a08161339e565b9050919050565b600060208201905081810360008301526138c0816133c1565b9050919050565b600060208201905081810360008301526138e0816133e4565b9050919050565b6000602082019050818103600083015261390081613407565b9050919050565b600060208201905081810360008301526139208161342a565b9050919050565b600060208201905081810360008301526139408161344d565b9050919050565b6000602082019050818103600083015261396081613470565b9050919050565b6000602082019050818103600083015261398081613493565b9050919050565b600060208201905081810360008301526139a0816134b6565b9050919050565b600060208201905081810360008301526139c0816134d9565b9050919050565b600060208201905081810360008301526139e0816134fc565b9050919050565b60006020820190508181036000830152613a008161351f565b9050919050565b60006020820190508181036000830152613a2081613542565b9050919050565b60006020820190508181036000830152613a4081613565565b9050919050565b60006020820190508181036000830152613a6081613588565b9050919050565b60006020820190508181036000830152613a80816135ab565b9050919050565b60006020820190508181036000830152613aa0816135ce565b9050919050565b60006020820190508181036000830152613ac0816135f1565b9050919050565b60006020820190508181036000830152613ae081613614565b9050919050565b60006020820190508181036000830152613b0081613637565b9050919050565b60006020820190508181036000830152613b208161365a565b9050919050565b6000602082019050613b3c600083018461367d565b92915050565b6000602082019050613b57600083018461368c565b92915050565b6000606082019050613b72600083018661367d565b613b7f602083018561369b565b613b8c6040830184613249565b949350505050565b6000606082019050613ba9600083018661368c565b613bb6602083018561369b565b613bc36040830184613249565b949350505050565b6000602082019050613be0600083018461369b565b92915050565b6000604082019050613bfb600083018561369b565b613c08602083018461369b565b9392505050565b6000602082019050613c2460008301846136aa565b92915050565b600081519050919050565b600081519050919050565b600081905092915050565b600082825260208201905092915050565b6000613c6782613de1565b9150613c7283613de1565b9250827fffffffffffffffffffffffffffffffffffffffffffffffffffffffffffffffff03821115613ca757613ca6613eb7565b5b828201905092915050565b6000613cbd82613de1565b9150613cc883613de1565b925082613cd857613cd7613ee6565b5b828204905092915050565b6000613cee82613de1565b9150613cf983613de1565b9250817fffffffffffffffffffffffffffffffffffffffffffffffffffffffffffffffff0483118215151615613d3257613d31613eb7565b5b828202905092915050565b6000613d4882613de1565b9150613d5383613de1565b925082821015613d6657613d65613eb7565b5b828203905092915050565b6000613d7c82613dc1565b9050919050565b60008115159050919050565b6000613d9a82613d71565b9050919050565b6000613dac82613d71565b9050919050565b600061ffff82169050919050565b600073ffffffffffffffffffffffffffffffffffffffff82169050919050565b6000819050919050565b600060ff82169050919050565b6000613e0382613e0a565b9050919050565b6000613e1582613dc1565b9050919050565b6000613e2782613e2e565b9050919050565b6000613e3982613dc1565b9050919050565b6000613e4b82613db3565b9050919050565b60005b83811015613e70578082015181840152602081019050613e55565b83811115613e7f576000848401525b50505050565b60006002820490506001821680613e9d57607f821691505b60208210811415613eb157613eb0613f15565b5b50919050565b7f4e487b7100000000000000000000000000000000000000000000000000000000600052601160045260246000fd5b7f4e487b7100000000000000000000000000000000000000000000000000000000600052601260045260246000fd5b7f4e487b7100000000000000000000000000000000000000000000000000000000600052602260045260246000fd5b6000601f19601f8301169050919050565b7f45524332303a207472616e7366657220746f20746865207a65726f206164647260008201527f6573730000000000000000000000000000000000000000000000000000000000602082015250565b7f5368617265732073686f756c642062652067726561746572207468616e203000600082015250565b7f5374617267617465577261707065723a207769746864726177206d6f7265207460008201527f68616e206d617800000000000000000000000000000000000000000000000000602082015250565b7f5374617267617465577261707065723a20616d6f756e7420657863656564732060008201527f6d617820616d6f756e7400000000000000000000000000000000000000000000602082015250565b7f45524332303a206275726e20616d6f756e7420657863656564732062616c616e60008201527f6365000000000000000000000000000000000000000000000000000000000000602082015250565b7f4f776e61626c653a206e6577206f776e657220697320746865207a65726f206160008201527f6464726573730000000000000000000000000000000000000000000000000000602082015250565b7f45524332303a20617070726f766520746f20746865207a65726f20616464726560008201527f7373000000000000000000000000000000000000000000000000000000000000602082015250565b7f45524332303a20696e73756666696369656e7420616c6c6f77616e6365000000600082015250565b7f455243343632363a2072656465656d206d6f7265207468616e206d6178000000600082015250565b7f45524332303a207472616e7366657220616d6f756e742065786365656473206260008201527f616c616e63650000000000000000000000000000000000000000000000000000602082015250565b7f5374617267617465577261707065723a20776974686472617720666565206d7560008201527f7374206265206c657373207468616e2031303030300000000000000000000000602082015250565b7f416464726573733a20696e73756666696369656e742062616c616e636520666f60008201527f722063616c6c0000000000000000000000000000000000000000000000000000602082015250565b7f455243343632363a207769746864726177206d6f7265207468616e206d617800600082015250565b7f455243343632363a206465706f736974206d6f7265207468616e206d61780000600082015250565b7f4f776e61626c653a2063616c6c6572206973206e6f7420746865206f776e6572600082015250565b7f455243343632363a206d696e74206d6f7265207468616e206d61780000000000600082015250565b7f45524332303a206275726e2066726f6d20746865207a65726f2061646472657360008201527f7300000000000000000000000000000000000000000000000000000000000000602082015250565b7f45524332303a207472616e736665722066726f6d20746865207a65726f20616460008201527f6472657373000000000000000000000000000000000000000000000000000000602082015250565b7f45524332303a20617070726f76652066726f6d20746865207a65726f2061646460008201527f7265737300000000000000000000000000000000000000000000000000000000602082015250565b7f416464726573733a2063616c6c20746f206e6f6e2d636f6e7472616374000000600082015250565b7f5374617267617465577261707065723a20616d6f756e74206d7573742062652060008201527f67726561746572207468616e207a65726f000000000000000000000000000000602082015250565b7f5361666545524332303a204552433230206f7065726174696f6e20646964206e60008201527f6f74207375636365656400000000000000000000000000000000000000000000602082015250565b7f5374617267617465577261707065723a20696e76616c6964207374617267617460008201527f6520616464726573730000000000000000000000000000000000000000000000602082015250565b7f5361666545524332303a20617070726f76652066726f6d206e6f6e2d7a65726f60008201527f20746f206e6f6e2d7a65726f20616c6c6f77616e636500000000000000000000602082015250565b7f45524332303a2064656372656173656420616c6c6f77616e63652062656c6f7760008201527f207a65726f000000000000000000000000000000000000000000000000000000602082015250565b7f45524332303a206d696e7420746f20746865207a65726f206164647265737300600082015250565b61460e81613d71565b811461461957600080fd5b50565b61462581613d83565b811461463057600080fd5b50565b61463c81613d8f565b811461464757600080fd5b50565b61465381613da1565b811461465e57600080fd5b50565b61466a81613de1565b811461467557600080fd5b5056fea2646970667358221220827d0500e6361b324753fbf585098c7f87fb849a73551e82b529ea769492b1be64736f6c63430008040033",
  "linkReferences": {},
  "deployedLinkReferences": {}
}